{
  "_format": "hh-sol-artifact-1",
  "contractName": "SVG_NFT",
  "sourceName": "contracts/nftcontract.sol",
  "abi": [
    {
      "inputs": [],
      "stateMutability": "nonpayable",
      "type": "constructor"
    },
    {
      "inputs": [
        {
          "internalType": "address",
          "name": "sender",
          "type": "address"
        },
        {
          "internalType": "uint256",
          "name": "tokenId",
          "type": "uint256"
        },
        {
          "internalType": "address",
          "name": "owner",
          "type": "address"
        }
      ],
      "name": "ERC721IncorrectOwner",
      "type": "error"
    },
    {
      "inputs": [
        {
          "internalType": "address",
          "name": "operator",
          "type": "address"
        },
        {
          "internalType": "uint256",
          "name": "tokenId",
          "type": "uint256"
        }
      ],
      "name": "ERC721InsufficientApproval",
      "type": "error"
    },
    {
      "inputs": [
        {
          "internalType": "address",
          "name": "approver",
          "type": "address"
        }
      ],
      "name": "ERC721InvalidApprover",
      "type": "error"
    },
    {
      "inputs": [
        {
          "internalType": "address",
          "name": "operator",
          "type": "address"
        }
      ],
      "name": "ERC721InvalidOperator",
      "type": "error"
    },
    {
      "inputs": [
        {
          "internalType": "address",
          "name": "owner",
          "type": "address"
        }
      ],
      "name": "ERC721InvalidOwner",
      "type": "error"
    },
    {
      "inputs": [
        {
          "internalType": "address",
          "name": "receiver",
          "type": "address"
        }
      ],
      "name": "ERC721InvalidReceiver",
      "type": "error"
    },
    {
      "inputs": [
        {
          "internalType": "address",
          "name": "sender",
          "type": "address"
        }
      ],
      "name": "ERC721InvalidSender",
      "type": "error"
    },
    {
      "inputs": [
        {
          "internalType": "uint256",
          "name": "tokenId",
          "type": "uint256"
        }
      ],
      "name": "ERC721NonexistentToken",
      "type": "error"
    },
    {
      "anonymous": false,
      "inputs": [
        {
          "indexed": true,
          "internalType": "address",
          "name": "owner",
          "type": "address"
        },
        {
          "indexed": true,
          "internalType": "address",
          "name": "approved",
          "type": "address"
        },
        {
          "indexed": true,
          "internalType": "uint256",
          "name": "tokenId",
          "type": "uint256"
        }
      ],
      "name": "Approval",
      "type": "event"
    },
    {
      "anonymous": false,
      "inputs": [
        {
          "indexed": true,
          "internalType": "address",
          "name": "owner",
          "type": "address"
        },
        {
          "indexed": true,
          "internalType": "address",
          "name": "operator",
          "type": "address"
        },
        {
          "indexed": false,
          "internalType": "bool",
          "name": "approved",
          "type": "bool"
        }
      ],
      "name": "ApprovalForAll",
      "type": "event"
    },
    {
      "anonymous": false,
      "inputs": [
        {
          "indexed": true,
          "internalType": "address",
          "name": "from",
          "type": "address"
        },
        {
          "indexed": true,
          "internalType": "address",
          "name": "to",
          "type": "address"
        },
        {
          "indexed": true,
          "internalType": "uint256",
          "name": "tokenId",
          "type": "uint256"
        }
      ],
      "name": "Transfer",
      "type": "event"
    },
    {
      "inputs": [
        {
          "internalType": "address",
          "name": "to",
          "type": "address"
        },
        {
          "internalType": "uint256",
          "name": "tokenId",
          "type": "uint256"
        }
      ],
      "name": "approve",
      "outputs": [],
      "stateMutability": "nonpayable",
      "type": "function"
    },
    {
      "inputs": [
        {
          "internalType": "address",
          "name": "owner",
          "type": "address"
        }
      ],
      "name": "balanceOf",
      "outputs": [
        {
          "internalType": "uint256",
          "name": "",
          "type": "uint256"
        }
      ],
      "stateMutability": "view",
      "type": "function"
    },
    {
      "inputs": [
        {
          "internalType": "uint256",
          "name": "tokenId",
          "type": "uint256"
        }
      ],
      "name": "getApproved",
      "outputs": [
        {
          "internalType": "address",
          "name": "",
          "type": "address"
        }
      ],
      "stateMutability": "view",
      "type": "function"
    },
    {
      "inputs": [
        {
          "internalType": "address",
          "name": "owner",
          "type": "address"
        },
        {
          "internalType": "address",
          "name": "operator",
          "type": "address"
        }
      ],
      "name": "isApprovedForAll",
      "outputs": [
        {
          "internalType": "bool",
          "name": "",
          "type": "bool"
        }
      ],
      "stateMutability": "view",
      "type": "function"
    },
    {
      "inputs": [],
      "name": "mintNFT",
      "outputs": [
        {
          "internalType": "uint256",
          "name": "",
          "type": "uint256"
        }
      ],
      "stateMutability": "nonpayable",
      "type": "function"
    },
    {
      "inputs": [],
      "name": "name",
      "outputs": [
        {
          "internalType": "string",
          "name": "",
          "type": "string"
        }
      ],
      "stateMutability": "view",
      "type": "function"
    },
    {
      "inputs": [
        {
          "internalType": "uint256",
          "name": "tokenId",
          "type": "uint256"
        }
      ],
      "name": "ownerOf",
      "outputs": [
        {
          "internalType": "address",
          "name": "",
          "type": "address"
        }
      ],
      "stateMutability": "view",
      "type": "function"
    },
    {
      "inputs": [
        {
          "internalType": "address",
          "name": "from",
          "type": "address"
        },
        {
          "internalType": "address",
          "name": "to",
          "type": "address"
        },
        {
          "internalType": "uint256",
          "name": "tokenId",
          "type": "uint256"
        }
      ],
      "name": "safeTransferFrom",
      "outputs": [],
      "stateMutability": "nonpayable",
      "type": "function"
    },
    {
      "inputs": [
        {
          "internalType": "address",
          "name": "from",
          "type": "address"
        },
        {
          "internalType": "address",
          "name": "to",
          "type": "address"
        },
        {
          "internalType": "uint256",
          "name": "tokenId",
          "type": "uint256"
        },
        {
          "internalType": "bytes",
          "name": "data",
          "type": "bytes"
        }
      ],
      "name": "safeTransferFrom",
      "outputs": [],
      "stateMutability": "nonpayable",
      "type": "function"
    },
    {
      "inputs": [
        {
          "internalType": "address",
          "name": "operator",
          "type": "address"
        },
        {
          "internalType": "bool",
          "name": "approved",
          "type": "bool"
        }
      ],
      "name": "setApprovalForAll",
      "outputs": [],
      "stateMutability": "nonpayable",
      "type": "function"
    },
    {
      "inputs": [
        {
          "internalType": "bytes4",
          "name": "interfaceId",
          "type": "bytes4"
        }
      ],
      "name": "supportsInterface",
      "outputs": [
        {
          "internalType": "bool",
          "name": "",
          "type": "bool"
        }
      ],
      "stateMutability": "view",
      "type": "function"
    },
    {
      "inputs": [],
      "name": "symbol",
      "outputs": [
        {
          "internalType": "string",
          "name": "",
          "type": "string"
        }
      ],
      "stateMutability": "view",
      "type": "function"
    },
    {
      "inputs": [
        {
          "internalType": "uint256",
          "name": "tokenId",
          "type": "uint256"
        }
      ],
      "name": "tokenURI",
      "outputs": [
        {
          "internalType": "string",
          "name": "",
          "type": "string"
        }
      ],
      "stateMutability": "view",
      "type": "function"
    },
    {
      "inputs": [
        {
          "internalType": "address",
          "name": "from",
          "type": "address"
        },
        {
          "internalType": "address",
          "name": "to",
          "type": "address"
        },
        {
          "internalType": "uint256",
          "name": "tokenId",
          "type": "uint256"
        }
      ],
      "name": "transferFrom",
      "outputs": [],
      "stateMutability": "nonpayable",
      "type": "function"
    }
  ],
  "bytecode": "0x60806040523480156200001157600080fd5b506040518060400160405280600781526020017f535647204e4654000000000000000000000000000000000000000000000000008152506040518060400160405280600681526020017f5356474e4654000000000000000000000000000000000000000000000000000081525081600090816200008f91906200032c565b508060019081620000a191906200032c565b505050600160068190555062000413565b600081519050919050565b7f4e487b7100000000000000000000000000000000000000000000000000000000600052604160045260246000fd5b7f4e487b7100000000000000000000000000000000000000000000000000000000600052602260045260246000fd5b600060028204905060018216806200013457607f821691505b6020821081036200014a5762000149620000ec565b5b50919050565b60008190508160005260206000209050919050565b60006020601f8301049050919050565b600082821b905092915050565b600060088302620001b47fffffffffffffffffffffffffffffffffffffffffffffffffffffffffffffffff8262000175565b620001c0868362000175565b95508019841693508086168417925050509392505050565b6000819050919050565b6000819050919050565b60006200020d620002076200020184620001d8565b620001e2565b620001d8565b9050919050565b6000819050919050565b6200022983620001ec565b62000241620002388262000214565b84845462000182565b825550505050565b600090565b6200025862000249565b620002658184846200021e565b505050565b5b818110156200028d57620002816000826200024e565b6001810190506200026b565b5050565b601f821115620002dc57620002a68162000150565b620002b18462000165565b81016020851015620002c1578190505b620002d9620002d08562000165565b8301826200026a565b50505b505050565b600082821c905092915050565b60006200030160001984600802620002e1565b1980831691505092915050565b60006200031c8383620002ee565b9150826002028217905092915050565b6200033782620000b2565b67ffffffffffffffff811115620003535762000352620000bd565b5b6200035f82546200011b565b6200036c82828562000291565b600060209050601f831160018114620003a457600084156200038f578287015190505b6200039b85826200030e565b8655506200040b565b601f198416620003b48662000150565b60005b82811015620003de57848901518255600182019150602085019450602081019050620003b7565b86831015620003fe5784890151620003fa601f891682620002ee565b8355505b6001600288020188555050505b505050505050565b61255f80620004236000396000f3fe608060405234801561001057600080fd5b50600436106100ea5760003560e01c80636352211e1161008c578063a22cb46511610066578063a22cb4651461025d578063b88d4fde14610279578063c87b56dd14610295578063e985e9c5146102c5576100ea565b80636352211e146101df57806370a082311461020f57806395d89b411461023f576100ea565b8063095ea7b3116100c8578063095ea7b31461016d57806314f710fe1461018957806323b872dd146101a757806342842e0e146101c3576100ea565b806301ffc9a7146100ef57806306fdde031461011f578063081812fc1461013d575b600080fd5b610109600480360381019061010491906118a1565b6102f5565b60405161011691906118e9565b60405180910390f35b6101276103d7565b6040516101349190611994565b60405180910390f35b610157600480360381019061015291906119ec565b610469565b6040516101649190611a5a565b60405180910390f35b61018760048036038101906101829190611aa1565b610485565b005b61019161049b565b60405161019e9190611af0565b60405180910390f35b6101c160048036038101906101bc9190611b0b565b6104c8565b005b6101dd60048036038101906101d89190611b0b565b6105ca565b005b6101f960048036038101906101f491906119ec565b6105ea565b6040516102069190611a5a565b60405180910390f35b61022960048036038101906102249190611b5e565b6105fc565b6040516102369190611af0565b60405180910390f35b6102476106b6565b6040516102549190611994565b60405180910390f35b61027760048036038101906102729190611bb7565b610748565b005b610293600480360381019061028e9190611d2c565b61075e565b005b6102af60048036038101906102aa91906119ec565b610783565b6040516102bc9190611994565b60405180910390f35b6102df60048036038101906102da9190611daf565b61087a565b6040516102ec91906118e9565b60405180910390f35b60007f80ac58cd000000000000000000000000000000000000000000000000000000007bffffffffffffffffffffffffffffffffffffffffffffffffffffffff1916827bffffffffffffffffffffffffffffffffffffffffffffffffffffffff191614806103c057507f5b5e139f000000000000000000000000000000000000000000000000000000007bffffffffffffffffffffffffffffffffffffffffffffffffffffffff1916827bffffffffffffffffffffffffffffffffffffffffffffffffffffffff1916145b806103d057506103cf8261090e565b5b9050919050565b6060600080546103e690611e1e565b80601f016020809104026020016040519081016040528092919081815260200182805461041290611e1e565b801561045f5780601f106104345761010080835404028352916020019161045f565b820191906000526020600020905b81548152906001019060200180831161044257829003601f168201915b5050505050905090565b600061047482610978565b5061047e82610a00565b9050919050565b6104978282610492610a3d565b610a45565b5050565b600080600660008154809291906104b190611e7e565b9190505590506104c13382610a57565b8091505090565b600073ffffffffffffffffffffffffffffffffffffffff168273ffffffffffffffffffffffffffffffffffffffff160361053a5760006040517f64a0ae920000000000000000000000000000000000000000000000000000000081526004016105319190611a5a565b60405180910390fd5b600061054e8383610549610a3d565b610a75565b90508373ffffffffffffffffffffffffffffffffffffffff168173ffffffffffffffffffffffffffffffffffffffff16146105c4578382826040517f64283d7b0000000000000000000000000000000000000000000000000000000081526004016105bb93929190611ec6565b60405180910390fd5b50505050565b6105e58383836040518060200160405280600081525061075e565b505050565b60006105f582610978565b9050919050565b60008073ffffffffffffffffffffffffffffffffffffffff168273ffffffffffffffffffffffffffffffffffffffff160361066f5760006040517f89c62b640000000000000000000000000000000000000000000000000000000081526004016106669190611a5a565b60405180910390fd5b600360008373ffffffffffffffffffffffffffffffffffffffff1673ffffffffffffffffffffffffffffffffffffffff168152602001908152602001600020549050919050565b6060600180546106c590611e1e565b80601f01602080910402602001604051908101604052809291908181526020018280546106f190611e1e565b801561073e5780601f106107135761010080835404028352916020019161073e565b820191906000526020600020905b81548152906001019060200180831161072157829003601f168201915b5050505050905090565b61075a610753610a3d565b8383610c8f565b5050565b6107698484846104c8565b61077d610774610a3d565b85858585610dfe565b50505050565b6060600073ffffffffffffffffffffffffffffffffffffffff166107a6836105ea565b73ffffffffffffffffffffffffffffffffffffffff16036107fc576040517f08c379a00000000000000000000000000000000000000000000000000000000081526004016107f390611f6f565b60405180910390fd5b600061081f6040518060c0016040528060a0815260200161244a60a09139610faf565b905061085361082d84610fdc565b8260405160200161083f929190612193565b604051602081830303815290604052610faf565b6040516020016108639190612245565b604051602081830303815290604052915050919050565b6000600560008473ffffffffffffffffffffffffffffffffffffffff1673ffffffffffffffffffffffffffffffffffffffff16815260200190815260200160002060008373ffffffffffffffffffffffffffffffffffffffff1673ffffffffffffffffffffffffffffffffffffffff16815260200190815260200160002060009054906101000a900460ff16905092915050565b60007f01ffc9a7000000000000000000000000000000000000000000000000000000007bffffffffffffffffffffffffffffffffffffffffffffffffffffffff1916827bffffffffffffffffffffffffffffffffffffffffffffffffffffffff1916149050919050565b600080610984836110aa565b9050600073ffffffffffffffffffffffffffffffffffffffff168173ffffffffffffffffffffffffffffffffffffffff16036109f757826040517f7e2732890000000000000000000000000000000000000000000000000000000081526004016109ee9190611af0565b60405180910390fd5b80915050919050565b60006004600083815260200190815260200160002060009054906101000a900473ffffffffffffffffffffffffffffffffffffffff169050919050565b600033905090565b610a5283838360016110e7565b505050565b610a718282604051806020016040528060008152506112ac565b5050565b600080610a81846110aa565b9050600073ffffffffffffffffffffffffffffffffffffffff168373ffffffffffffffffffffffffffffffffffffffff1614610ac357610ac28184866112d0565b5b600073ffffffffffffffffffffffffffffffffffffffff168173ffffffffffffffffffffffffffffffffffffffff1614610b5457610b056000856000806110e7565b6001600360008373ffffffffffffffffffffffffffffffffffffffff1673ffffffffffffffffffffffffffffffffffffffff168152602001908152602001600020600082825403925050819055505b600073ffffffffffffffffffffffffffffffffffffffff168573ffffffffffffffffffffffffffffffffffffffff1614610bd7576001600360008773ffffffffffffffffffffffffffffffffffffffff1673ffffffffffffffffffffffffffffffffffffffff168152602001908152602001600020600082825401925050819055505b846002600086815260200190815260200160002060006101000a81548173ffffffffffffffffffffffffffffffffffffffff021916908373ffffffffffffffffffffffffffffffffffffffff160217905550838573ffffffffffffffffffffffffffffffffffffffff168273ffffffffffffffffffffffffffffffffffffffff167fddf252ad1be2c89b69c2b068fc378daa952ba7f163c4a11628f55a4df523b3ef60405160405180910390a4809150509392505050565b600073ffffffffffffffffffffffffffffffffffffffff168273ffffffffffffffffffffffffffffffffffffffff1603610d0057816040517f5b08ba18000000000000000000000000000000000000000000000000000000008152600401610cf79190611a5a565b60405180910390fd5b80600560008573ffffffffffffffffffffffffffffffffffffffff1673ffffffffffffffffffffffffffffffffffffffff16815260200190815260200160002060008473ffffffffffffffffffffffffffffffffffffffff1673ffffffffffffffffffffffffffffffffffffffff16815260200190815260200160002060006101000a81548160ff0219169083151502179055508173ffffffffffffffffffffffffffffffffffffffff168373ffffffffffffffffffffffffffffffffffffffff167f17307eab39ab6107e8899845ad3d59bd9653f200f220920489ca2b5937696c3183604051610df191906118e9565b60405180910390a3505050565b60008373ffffffffffffffffffffffffffffffffffffffff163b1115610fa8578273ffffffffffffffffffffffffffffffffffffffff1663150b7a02868685856040518563ffffffff1660e01b8152600401610e5d94939291906122bc565b6020604051808303816000875af1925050508015610e9957506040513d601f19601f82011682018060405250810190610e96919061231d565b60015b610f1d573d8060008114610ec9576040519150601f19603f3d011682016040523d82523d6000602084013e610ece565b606091505b506000815103610f1557836040517f64a0ae92000000000000000000000000000000000000000000000000000000008152600401610f0c9190611a5a565b60405180910390fd5b805181602001fd5b63150b7a0260e01b7bffffffffffffffffffffffffffffffffffffffffffffffffffffffff1916817bffffffffffffffffffffffffffffffffffffffffffffffffffffffff191614610fa657836040517f64a0ae92000000000000000000000000000000000000000000000000000000008152600401610f9d9190611a5a565b60405180910390fd5b505b5050505050565b6060610fd5826040518060600160405280604081526020016124ea604091396001611394565b9050919050565b606060006001610feb84611528565b01905060008167ffffffffffffffff81111561100a57611009611c01565b5b6040519080825280601f01601f19166020018201604052801561103c5781602001600182028036833780820191505090505b509050600082602001820190505b60011561109f578080600190039150507f3031323334353637383961626364656600000000000000000000000000000000600a86061a8153600a85816110935761109261234a565b5b0494506000850361104a575b819350505050919050565b60006002600083815260200190815260200160002060009054906101000a900473ffffffffffffffffffffffffffffffffffffffff169050919050565b80806111205750600073ffffffffffffffffffffffffffffffffffffffff168273ffffffffffffffffffffffffffffffffffffffff1614155b1561125457600061113084610978565b9050600073ffffffffffffffffffffffffffffffffffffffff168373ffffffffffffffffffffffffffffffffffffffff161415801561119b57508273ffffffffffffffffffffffffffffffffffffffff168173ffffffffffffffffffffffffffffffffffffffff1614155b80156111ae57506111ac818461087a565b155b156111f057826040517fa9fbf51f0000000000000000000000000000000000000000000000000000000081526004016111e79190611a5a565b60405180910390fd5b811561125257838573ffffffffffffffffffffffffffffffffffffffff168273ffffffffffffffffffffffffffffffffffffffff167f8c5be1e5ebec7d5bd14f71427d1e84f3dd0314c0f7b2291e5b200ac8c7c3b92560405160405180910390a45b505b836004600085815260200190815260200160002060006101000a81548173ffffffffffffffffffffffffffffffffffffffff021916908373ffffffffffffffffffffffffffffffffffffffff16021790555050505050565b6112b6838361167b565b6112cb6112c1610a3d565b6000858585610dfe565b505050565b6112db838383611774565b61138f57600073ffffffffffffffffffffffffffffffffffffffff168373ffffffffffffffffffffffffffffffffffffffff160361135057806040517f7e2732890000000000000000000000000000000000000000000000000000000081526004016113479190611af0565b60405180910390fd5b81816040517f177e802f000000000000000000000000000000000000000000000000000000008152600401611386929190612379565b60405180910390fd5b505050565b606060008451036113b657604051806020016040528060008152509050611521565b6000826113e85760036002865160046113cf91906123a2565b6113d991906123e4565b6113e39190612418565b61140f565b6003600286516113f891906123e4565b6114029190612418565b600461140e91906123a2565b5b905060008167ffffffffffffffff81111561142d5761142c611c01565b5b6040519080825280601f01601f19166020018201604052801561145f5781602001600182028036833780820191505090505b50905060018501602082018788518901602081018051600082525b828410156114d5576003840193508351603f8160121c168701518653600186019550603f81600c1c168701518653600186019550603f8160061c168701518653600186019550603f811687015186536001860195505061147a565b80825289156115155760038c5106600181146114f8576002811461150b57611513565b603d6001870353603d6002870353611513565b603d60018703535b505b50505050505080925050505b9392505050565b600080600090507a184f03e93ff9f4daa797ed6e38ed64bf6a1f0100000000000000008310611586577a184f03e93ff9f4daa797ed6e38ed64bf6a1f010000000000000000838161157c5761157b61234a565b5b0492506040810190505b6d04ee2d6d415b85acef810000000083106115c3576d04ee2d6d415b85acef810000000083816115b9576115b861234a565b5b0492506020810190505b662386f26fc1000083106115f257662386f26fc1000083816115e8576115e761234a565b5b0492506010810190505b6305f5e100831061161b576305f5e10083816116115761161061234a565b5b0492506008810190505b61271083106116405761271083816116365761163561234a565b5b0492506004810190505b6064831061166357606483816116595761165861234a565b5b0492506002810190505b600a8310611672576001810190505b80915050919050565b600073ffffffffffffffffffffffffffffffffffffffff168273ffffffffffffffffffffffffffffffffffffffff16036116ed5760006040517f64a0ae920000000000000000000000000000000000000000000000000000000081526004016116e49190611a5a565b60405180910390fd5b60006116fb83836000610a75565b9050600073ffffffffffffffffffffffffffffffffffffffff168173ffffffffffffffffffffffffffffffffffffffff161461176f5760006040517f73c6ac6e0000000000000000000000000000000000000000000000000000000081526004016117669190611a5a565b60405180910390fd5b505050565b60008073ffffffffffffffffffffffffffffffffffffffff168373ffffffffffffffffffffffffffffffffffffffff161415801561182c57508273ffffffffffffffffffffffffffffffffffffffff168473ffffffffffffffffffffffffffffffffffffffff1614806117ed57506117ec848461087a565b5b8061182b57508273ffffffffffffffffffffffffffffffffffffffff1661181383610a00565b73ffffffffffffffffffffffffffffffffffffffff16145b5b90509392505050565b6000604051905090565b600080fd5b600080fd5b60007fffffffff0000000000000000000000000000000000000000000000000000000082169050919050565b61187e81611849565b811461188957600080fd5b50565b60008135905061189b81611875565b92915050565b6000602082840312156118b7576118b661183f565b5b60006118c58482850161188c565b91505092915050565b60008115159050919050565b6118e3816118ce565b82525050565b60006020820190506118fe60008301846118da565b92915050565b600081519050919050565b600082825260208201905092915050565b60005b8381101561193e578082015181840152602081019050611923565b60008484015250505050565b6000601f19601f8301169050919050565b600061196682611904565b611970818561190f565b9350611980818560208601611920565b6119898161194a565b840191505092915050565b600060208201905081810360008301526119ae818461195b565b905092915050565b6000819050919050565b6119c9816119b6565b81146119d457600080fd5b50565b6000813590506119e6816119c0565b92915050565b600060208284031215611a0257611a0161183f565b5b6000611a10848285016119d7565b91505092915050565b600073ffffffffffffffffffffffffffffffffffffffff82169050919050565b6000611a4482611a19565b9050919050565b611a5481611a39565b82525050565b6000602082019050611a6f6000830184611a4b565b92915050565b611a7e81611a39565b8114611a8957600080fd5b50565b600081359050611a9b81611a75565b92915050565b60008060408385031215611ab857611ab761183f565b5b6000611ac685828601611a8c565b9250506020611ad7858286016119d7565b9150509250929050565b611aea816119b6565b82525050565b6000602082019050611b056000830184611ae1565b92915050565b600080600060608486031215611b2457611b2361183f565b5b6000611b3286828701611a8c565b9350506020611b4386828701611a8c565b9250506040611b54868287016119d7565b9150509250925092565b600060208284031215611b7457611b7361183f565b5b6000611b8284828501611a8c565b91505092915050565b611b94816118ce565b8114611b9f57600080fd5b50565b600081359050611bb181611b8b565b92915050565b60008060408385031215611bce57611bcd61183f565b5b6000611bdc85828601611a8c565b9250506020611bed85828601611ba2565b9150509250929050565b600080fd5b600080fd5b7f4e487b7100000000000000000000000000000000000000000000000000000000600052604160045260246000fd5b611c398261194a565b810181811067ffffffffffffffff82111715611c5857611c57611c01565b5b80604052505050565b6000611c6b611835565b9050611c778282611c30565b919050565b600067ffffffffffffffff821115611c9757611c96611c01565b5b611ca08261194a565b9050602081019050919050565b82818337600083830152505050565b6000611ccf611cca84611c7c565b611c61565b905082815260208101848484011115611ceb57611cea611bfc565b5b611cf6848285611cad565b509392505050565b600082601f830112611d1357611d12611bf7565b5b8135611d23848260208601611cbc565b91505092915050565b60008060008060808587031215611d4657611d4561183f565b5b6000611d5487828801611a8c565b9450506020611d6587828801611a8c565b9350506040611d76878288016119d7565b925050606085013567ffffffffffffffff811115611d9757611d96611844565b5b611da387828801611cfe565b91505092959194509250565b60008060408385031215611dc657611dc561183f565b5b6000611dd485828601611a8c565b9250506020611de585828601611a8c565b9150509250929050565b7f4e487b7100000000000000000000000000000000000000000000000000000000600052602260045260246000fd5b60006002820490506001821680611e3657607f821691505b602082108103611e4957611e48611def565b5b50919050565b7f4e487b7100000000000000000000000000000000000000000000000000000000600052601160045260246000fd5b6000611e89826119b6565b91507fffffffffffffffffffffffffffffffffffffffffffffffffffffffffffffffff8203611ebb57611eba611e4f565b5b600182019050919050565b6000606082019050611edb6000830186611a4b565b611ee86020830185611ae1565b611ef56040830184611a4b565b949350505050565b7f4552433732314d657461646174613a2055524920717565727920666f72206e6f60008201527f6e6578697374656e7420746f6b656e0000000000000000000000000000000000602082015250565b6000611f59602f8361190f565b9150611f6482611efd565b604082019050919050565b60006020820190508181036000830152611f8881611f4c565b9050919050565b600081905092915050565b7f7b226e616d65223a22535647204e465420230000000000000000000000000000600082015250565b6000611fd0601283611f8f565b9150611fdb82611f9a565b601282019050919050565b6000611ff182611904565b611ffb8185611f8f565b935061200b818560208601611920565b80840191505092915050565b7f222c000000000000000000000000000000000000000000000000000000000000600082015250565b600061204d600283611f8f565b915061205882612017565b600282019050919050565b7f226465736372697074696f6e223a22416e204e46542077697468206f6e2d636860008201527f61696e2053564720696d616765222c0000000000000000000000000000000000602082015250565b60006120bf602f83611f8f565b91506120ca82612063565b602f82019050919050565b7f22696d616765223a22646174613a696d6167652f7376672b786d6c3b6261736560008201527f36342c0000000000000000000000000000000000000000000000000000000000602082015250565b6000612131602383611f8f565b915061213c826120d5565b602382019050919050565b7f2261747472696275746573223a5b5d7d00000000000000000000000000000000600082015250565b600061217d601083611f8f565b915061218882612147565b601082019050919050565b600061219e82611fc3565b91506121aa8285611fe6565b91506121b582612040565b91506121c0826120b2565b91506121cb82612124565b91506121d78284611fe6565b91506121e282612040565b91506121ed82612170565b91508190509392505050565b7f646174613a6170706c69636174696f6e2f6a736f6e3b6261736536342c000000600082015250565b600061222f601d83611f8f565b915061223a826121f9565b601d82019050919050565b600061225082612222565b915061225c8284611fe6565b915081905092915050565b600081519050919050565b600082825260208201905092915050565b600061228e82612267565b6122988185612272565b93506122a8818560208601611920565b6122b18161194a565b840191505092915050565b60006080820190506122d16000830187611a4b565b6122de6020830186611a4b565b6122eb6040830185611ae1565b81810360608301526122fd8184612283565b905095945050505050565b60008151905061231781611875565b92915050565b6000602082840312156123335761233261183f565b5b600061234184828501612308565b91505092915050565b7f4e487b7100000000000000000000000000000000000000000000000000000000600052601260045260246000fd5b600060408201905061238e6000830185611a4b565b61239b6020830184611ae1565b9392505050565b60006123ad826119b6565b91506123b8836119b6565b92508282026123c6816119b6565b915082820484148315176123dd576123dc611e4f565b5b5092915050565b60006123ef826119b6565b91506123fa836119b6565b925082820190508082111561241257612411611e4f565b5b92915050565b6000612423826119b6565b915061242e836119b6565b92508261243e5761243d61234a565b5b82820490509291505056fe68747470733a2f2f63646e2e70726f642e776562736974652d66696c65732e636f6d2f3636313536333661303361363030336230363763333664642f3636316666643064626539363733643931346564636132645f3634323366633963613862356539346461313638316137305f53637265656e73686f742532353230323032332d30332d323925323532306174253235323031302e35332e34332e6a7065674142434445464748494a4b4c4d4e4f505152535455565758595a6162636465666768696a6b6c6d6e6f707172737475767778797a303132333435363738392b2fa2646970667358221220bec4cefa3c72c87fdee9db652d50e9a18a8aac5878e0c43e4a592eaca8c4ae4064736f6c63430008140033",
  "linkReferences": {},
  "deployedLinkReferences": {}
}