{
  "_format": "hh-sol-artifact-1",
  "contractName": "SVG_NFT",
  "sourceName": "contracts/nftcontract.sol",
  "abi": [
    {
      "inputs": [],
      "stateMutability": "nonpayable",
      "type": "constructor"
    },
    {
      "inputs": [
        {
          "internalType": "address",
          "name": "sender",
          "type": "address"
        },
        {
          "internalType": "uint256",
          "name": "tokenId",
          "type": "uint256"
        },
        {
          "internalType": "address",
          "name": "owner",
          "type": "address"
        }
      ],
      "name": "ERC721IncorrectOwner",
      "type": "error"
    },
    {
      "inputs": [
        {
          "internalType": "address",
          "name": "operator",
          "type": "address"
        },
        {
          "internalType": "uint256",
          "name": "tokenId",
          "type": "uint256"
        }
      ],
      "name": "ERC721InsufficientApproval",
      "type": "error"
    },
    {
      "inputs": [
        {
          "internalType": "address",
          "name": "approver",
          "type": "address"
        }
      ],
      "name": "ERC721InvalidApprover",
      "type": "error"
    },
    {
      "inputs": [
        {
          "internalType": "address",
          "name": "operator",
          "type": "address"
        }
      ],
      "name": "ERC721InvalidOperator",
      "type": "error"
    },
    {
      "inputs": [
        {
          "internalType": "address",
          "name": "owner",
          "type": "address"
        }
      ],
      "name": "ERC721InvalidOwner",
      "type": "error"
    },
    {
      "inputs": [
        {
          "internalType": "address",
          "name": "receiver",
          "type": "address"
        }
      ],
      "name": "ERC721InvalidReceiver",
      "type": "error"
    },
    {
      "inputs": [
        {
          "internalType": "address",
          "name": "sender",
          "type": "address"
        }
      ],
      "name": "ERC721InvalidSender",
      "type": "error"
    },
    {
      "inputs": [
        {
          "internalType": "uint256",
          "name": "tokenId",
          "type": "uint256"
        }
      ],
      "name": "ERC721NonexistentToken",
      "type": "error"
    },
    {
      "anonymous": false,
      "inputs": [
        {
          "indexed": true,
          "internalType": "address",
          "name": "owner",
          "type": "address"
        },
        {
          "indexed": true,
          "internalType": "address",
          "name": "approved",
          "type": "address"
        },
        {
          "indexed": true,
          "internalType": "uint256",
          "name": "tokenId",
          "type": "uint256"
        }
      ],
      "name": "Approval",
      "type": "event"
    },
    {
      "anonymous": false,
      "inputs": [
        {
          "indexed": true,
          "internalType": "address",
          "name": "owner",
          "type": "address"
        },
        {
          "indexed": true,
          "internalType": "address",
          "name": "operator",
          "type": "address"
        },
        {
          "indexed": false,
          "internalType": "bool",
          "name": "approved",
          "type": "bool"
        }
      ],
      "name": "ApprovalForAll",
      "type": "event"
    },
    {
      "anonymous": false,
      "inputs": [
        {
          "indexed": true,
          "internalType": "address",
          "name": "from",
          "type": "address"
        },
        {
          "indexed": true,
          "internalType": "address",
          "name": "to",
          "type": "address"
        },
        {
          "indexed": true,
          "internalType": "uint256",
          "name": "tokenId",
          "type": "uint256"
        }
      ],
      "name": "Transfer",
      "type": "event"
    },
    {
      "inputs": [
        {
          "internalType": "address",
          "name": "to",
          "type": "address"
        },
        {
          "internalType": "uint256",
          "name": "tokenId",
          "type": "uint256"
        }
      ],
      "name": "approve",
      "outputs": [],
      "stateMutability": "nonpayable",
      "type": "function"
    },
    {
      "inputs": [
        {
          "internalType": "address",
          "name": "owner",
          "type": "address"
        }
      ],
      "name": "balanceOf",
      "outputs": [
        {
          "internalType": "uint256",
          "name": "",
          "type": "uint256"
        }
      ],
      "stateMutability": "view",
      "type": "function"
    },
    {
      "inputs": [
        {
          "internalType": "uint256",
          "name": "tokenId",
          "type": "uint256"
        }
      ],
      "name": "getApproved",
      "outputs": [
        {
          "internalType": "address",
          "name": "",
          "type": "address"
        }
      ],
      "stateMutability": "view",
      "type": "function"
    },
    {
      "inputs": [
        {
          "internalType": "address",
          "name": "owner",
          "type": "address"
        },
        {
          "internalType": "address",
          "name": "operator",
          "type": "address"
        }
      ],
      "name": "isApprovedForAll",
      "outputs": [
        {
          "internalType": "bool",
          "name": "",
          "type": "bool"
        }
      ],
      "stateMutability": "view",
      "type": "function"
    },
    {
      "inputs": [],
      "name": "mintNFT",
      "outputs": [
        {
          "internalType": "uint256",
          "name": "",
          "type": "uint256"
        }
      ],
      "stateMutability": "nonpayable",
      "type": "function"
    },
    {
      "inputs": [],
      "name": "name",
      "outputs": [
        {
          "internalType": "string",
          "name": "",
          "type": "string"
        }
      ],
      "stateMutability": "view",
      "type": "function"
    },
    {
      "inputs": [
        {
          "internalType": "uint256",
          "name": "tokenId",
          "type": "uint256"
        }
      ],
      "name": "ownerOf",
      "outputs": [
        {
          "internalType": "address",
          "name": "",
          "type": "address"
        }
      ],
      "stateMutability": "view",
      "type": "function"
    },
    {
      "inputs": [
        {
          "internalType": "address",
          "name": "from",
          "type": "address"
        },
        {
          "internalType": "address",
          "name": "to",
          "type": "address"
        },
        {
          "internalType": "uint256",
          "name": "tokenId",
          "type": "uint256"
        }
      ],
      "name": "safeTransferFrom",
      "outputs": [],
      "stateMutability": "nonpayable",
      "type": "function"
    },
    {
      "inputs": [
        {
          "internalType": "address",
          "name": "from",
          "type": "address"
        },
        {
          "internalType": "address",
          "name": "to",
          "type": "address"
        },
        {
          "internalType": "uint256",
          "name": "tokenId",
          "type": "uint256"
        },
        {
          "internalType": "bytes",
          "name": "data",
          "type": "bytes"
        }
      ],
      "name": "safeTransferFrom",
      "outputs": [],
      "stateMutability": "nonpayable",
      "type": "function"
    },
    {
      "inputs": [
        {
          "internalType": "address",
          "name": "operator",
          "type": "address"
        },
        {
          "internalType": "bool",
          "name": "approved",
          "type": "bool"
        }
      ],
      "name": "setApprovalForAll",
      "outputs": [],
      "stateMutability": "nonpayable",
      "type": "function"
    },
    {
      "inputs": [
        {
          "internalType": "bytes4",
          "name": "interfaceId",
          "type": "bytes4"
        }
      ],
      "name": "supportsInterface",
      "outputs": [
        {
          "internalType": "bool",
          "name": "",
          "type": "bool"
        }
      ],
      "stateMutability": "view",
      "type": "function"
    },
    {
      "inputs": [],
      "name": "symbol",
      "outputs": [
        {
          "internalType": "string",
          "name": "",
          "type": "string"
        }
      ],
      "stateMutability": "view",
      "type": "function"
    },
    {
      "inputs": [
        {
          "internalType": "uint256",
          "name": "tokenId",
          "type": "uint256"
        }
      ],
      "name": "tokenURI",
      "outputs": [
        {
          "internalType": "string",
          "name": "",
          "type": "string"
        }
      ],
      "stateMutability": "view",
      "type": "function"
    },
    {
      "inputs": [
        {
          "internalType": "address",
          "name": "from",
          "type": "address"
        },
        {
          "internalType": "address",
          "name": "to",
          "type": "address"
        },
        {
          "internalType": "uint256",
          "name": "tokenId",
          "type": "uint256"
        }
      ],
      "name": "transferFrom",
      "outputs": [],
      "stateMutability": "nonpayable",
      "type": "function"
    }
  ],
  "bytecode": "0x60806040523480156200001157600080fd5b506040518060400160405280600781526020017f535647204e4654000000000000000000000000000000000000000000000000008152506040518060400160405280600681526020017f5356474e4654000000000000000000000000000000000000000000000000000081525081600090816200008f91906200032c565b508060019081620000a191906200032c565b505050600160068190555062000413565b600081519050919050565b7f4e487b7100000000000000000000000000000000000000000000000000000000600052604160045260246000fd5b7f4e487b7100000000000000000000000000000000000000000000000000000000600052602260045260246000fd5b600060028204905060018216806200013457607f821691505b6020821081036200014a5762000149620000ec565b5b50919050565b60008190508160005260206000209050919050565b60006020601f8301049050919050565b600082821b905092915050565b600060088302620001b47fffffffffffffffffffffffffffffffffffffffffffffffffffffffffffffffff8262000175565b620001c0868362000175565b95508019841693508086168417925050509392505050565b6000819050919050565b6000819050919050565b60006200020d620002076200020184620001d8565b620001e2565b620001d8565b9050919050565b6000819050919050565b6200022983620001ec565b62000241620002388262000214565b84845462000182565b825550505050565b600090565b6200025862000249565b620002658184846200021e565b505050565b5b818110156200028d57620002816000826200024e565b6001810190506200026b565b5050565b601f821115620002dc57620002a68162000150565b620002b18462000165565b81016020851015620002c1578190505b620002d9620002d08562000165565b8301826200026a565b50505b505050565b600082821c905092915050565b60006200030160001984600802620002e1565b1980831691505092915050565b60006200031c8383620002ee565b9150826002028217905092915050565b6200033782620000b2565b67ffffffffffffffff811115620003535762000352620000bd565b5b6200035f82546200011b565b6200036c82828562000291565b600060209050601f831160018114620003a457600084156200038f578287015190505b6200039b85826200030e565b8655506200040b565b601f198416620003b48662000150565b60005b82811015620003de57848901518255600182019150602085019450602081019050620003b7565b86831015620003fe5784890151620003fa601f891682620002ee565b8355505b6001600288020188555050505b505050505050565b6125b180620004236000396000f3fe608060405234801561001057600080fd5b50600436106100ea5760003560e01c80636352211e1161008c578063a22cb46511610066578063a22cb4651461025d578063b88d4fde14610279578063c87b56dd14610295578063e985e9c5146102c5576100ea565b80636352211e146101df57806370a082311461020f57806395d89b411461023f576100ea565b8063095ea7b3116100c8578063095ea7b31461016d57806314f710fe1461018957806323b872dd146101a757806342842e0e146101c3576100ea565b806301ffc9a7146100ef57806306fdde031461011f578063081812fc1461013d575b600080fd5b610109600480360381019061010491906118a8565b6102f5565b60405161011691906118f0565b60405180910390f35b6101276103d7565b604051610134919061199b565b60405180910390f35b610157600480360381019061015291906119f3565b610469565b6040516101649190611a61565b60405180910390f35b61018760048036038101906101829190611aa8565b610485565b005b61019161049b565b60405161019e9190611af7565b60405180910390f35b6101c160048036038101906101bc9190611b12565b6104c8565b005b6101dd60048036038101906101d89190611b12565b6105ca565b005b6101f960048036038101906101f491906119f3565b6105ea565b6040516102069190611a61565b60405180910390f35b61022960048036038101906102249190611b65565b6105fc565b6040516102369190611af7565b60405180910390f35b6102476106b6565b604051610254919061199b565b60405180910390f35b61027760048036038101906102729190611bbe565b610748565b005b610293600480360381019061028e9190611d33565b61075e565b005b6102af60048036038101906102aa91906119f3565b610783565b6040516102bc919061199b565b60405180910390f35b6102df60048036038101906102da9190611db6565b610881565b6040516102ec91906118f0565b60405180910390f35b60007f80ac58cd000000000000000000000000000000000000000000000000000000007bffffffffffffffffffffffffffffffffffffffffffffffffffffffff1916827bffffffffffffffffffffffffffffffffffffffffffffffffffffffff191614806103c057507f5b5e139f000000000000000000000000000000000000000000000000000000007bffffffffffffffffffffffffffffffffffffffffffffffffffffffff1916827bffffffffffffffffffffffffffffffffffffffffffffffffffffffff1916145b806103d057506103cf82610915565b5b9050919050565b6060600080546103e690611e25565b80601f016020809104026020016040519081016040528092919081815260200182805461041290611e25565b801561045f5780601f106104345761010080835404028352916020019161045f565b820191906000526020600020905b81548152906001019060200180831161044257829003601f168201915b5050505050905090565b60006104748261097f565b5061047e82610a07565b9050919050565b6104978282610492610a44565b610a4c565b5050565b600080600660008154809291906104b190611e85565b9190505590506104c13382610a5e565b8091505090565b600073ffffffffffffffffffffffffffffffffffffffff168273ffffffffffffffffffffffffffffffffffffffff160361053a5760006040517f64a0ae920000000000000000000000000000000000000000000000000000000081526004016105319190611a61565b60405180910390fd5b600061054e8383610549610a44565b610a7c565b90508373ffffffffffffffffffffffffffffffffffffffff168173ffffffffffffffffffffffffffffffffffffffff16146105c4578382826040517f64283d7b0000000000000000000000000000000000000000000000000000000081526004016105bb93929190611ecd565b60405180910390fd5b50505050565b6105e58383836040518060200160405280600081525061075e565b505050565b60006105f58261097f565b9050919050565b60008073ffffffffffffffffffffffffffffffffffffffff168273ffffffffffffffffffffffffffffffffffffffff160361066f5760006040517f89c62b640000000000000000000000000000000000000000000000000000000081526004016106669190611a61565b60405180910390fd5b600360008373ffffffffffffffffffffffffffffffffffffffff1673ffffffffffffffffffffffffffffffffffffffff168152602001908152602001600020549050919050565b6060600180546106c590611e25565b80601f01602080910402602001604051908101604052809291908181526020018280546106f190611e25565b801561073e5780601f106107135761010080835404028352916020019161073e565b820191906000526020600020905b81548152906001019060200180831161072157829003601f168201915b5050505050905090565b61075a610753610a44565b8383610c96565b5050565b6107698484846104c8565b61077d610774610a44565b85858585610e05565b50505050565b6060600073ffffffffffffffffffffffffffffffffffffffff166107a6836105ea565b73ffffffffffffffffffffffffffffffffffffffff16036107fc576040517f08c379a00000000000000000000000000000000000000000000000000000000081526004016107f390611f76565b60405180910390fd5b600061082060405180610120016040528060eb815260200161245160eb9139610fb6565b9050600061085661083085610fe3565b8360405160200161084292919061219a565b604051602081830303815290604052610fb6565b905080604051602001610869919061224c565b60405160208183030381529060405292505050919050565b6000600560008473ffffffffffffffffffffffffffffffffffffffff1673ffffffffffffffffffffffffffffffffffffffff16815260200190815260200160002060008373ffffffffffffffffffffffffffffffffffffffff1673ffffffffffffffffffffffffffffffffffffffff16815260200190815260200160002060009054906101000a900460ff16905092915050565b60007f01ffc9a7000000000000000000000000000000000000000000000000000000007bffffffffffffffffffffffffffffffffffffffffffffffffffffffff1916827bffffffffffffffffffffffffffffffffffffffffffffffffffffffff1916149050919050565b60008061098b836110b1565b9050600073ffffffffffffffffffffffffffffffffffffffff168173ffffffffffffffffffffffffffffffffffffffff16036109fe57826040517f7e2732890000000000000000000000000000000000000000000000000000000081526004016109f59190611af7565b60405180910390fd5b80915050919050565b60006004600083815260200190815260200160002060009054906101000a900473ffffffffffffffffffffffffffffffffffffffff169050919050565b600033905090565b610a5983838360016110ee565b505050565b610a788282604051806020016040528060008152506112b3565b5050565b600080610a88846110b1565b9050600073ffffffffffffffffffffffffffffffffffffffff168373ffffffffffffffffffffffffffffffffffffffff1614610aca57610ac98184866112d7565b5b600073ffffffffffffffffffffffffffffffffffffffff168173ffffffffffffffffffffffffffffffffffffffff1614610b5b57610b0c6000856000806110ee565b6001600360008373ffffffffffffffffffffffffffffffffffffffff1673ffffffffffffffffffffffffffffffffffffffff168152602001908152602001600020600082825403925050819055505b600073ffffffffffffffffffffffffffffffffffffffff168573ffffffffffffffffffffffffffffffffffffffff1614610bde576001600360008773ffffffffffffffffffffffffffffffffffffffff1673ffffffffffffffffffffffffffffffffffffffff168152602001908152602001600020600082825401925050819055505b846002600086815260200190815260200160002060006101000a81548173ffffffffffffffffffffffffffffffffffffffff021916908373ffffffffffffffffffffffffffffffffffffffff160217905550838573ffffffffffffffffffffffffffffffffffffffff168273ffffffffffffffffffffffffffffffffffffffff167fddf252ad1be2c89b69c2b068fc378daa952ba7f163c4a11628f55a4df523b3ef60405160405180910390a4809150509392505050565b600073ffffffffffffffffffffffffffffffffffffffff168273ffffffffffffffffffffffffffffffffffffffff1603610d0757816040517f5b08ba18000000000000000000000000000000000000000000000000000000008152600401610cfe9190611a61565b60405180910390fd5b80600560008573ffffffffffffffffffffffffffffffffffffffff1673ffffffffffffffffffffffffffffffffffffffff16815260200190815260200160002060008473ffffffffffffffffffffffffffffffffffffffff1673ffffffffffffffffffffffffffffffffffffffff16815260200190815260200160002060006101000a81548160ff0219169083151502179055508173ffffffffffffffffffffffffffffffffffffffff168373ffffffffffffffffffffffffffffffffffffffff167f17307eab39ab6107e8899845ad3d59bd9653f200f220920489ca2b5937696c3183604051610df891906118f0565b60405180910390a3505050565b60008373ffffffffffffffffffffffffffffffffffffffff163b1115610faf578273ffffffffffffffffffffffffffffffffffffffff1663150b7a02868685856040518563ffffffff1660e01b8152600401610e6494939291906122c3565b6020604051808303816000875af1925050508015610ea057506040513d601f19601f82011682018060405250810190610e9d9190612324565b60015b610f24573d8060008114610ed0576040519150601f19603f3d011682016040523d82523d6000602084013e610ed5565b606091505b506000815103610f1c57836040517f64a0ae92000000000000000000000000000000000000000000000000000000008152600401610f139190611a61565b60405180910390fd5b805181602001fd5b63150b7a0260e01b7bffffffffffffffffffffffffffffffffffffffffffffffffffffffff1916817bffffffffffffffffffffffffffffffffffffffffffffffffffffffff191614610fad57836040517f64a0ae92000000000000000000000000000000000000000000000000000000008152600401610fa49190611a61565b60405180910390fd5b505b5050505050565b6060610fdc8260405180606001604052806040815260200161253c60409139600161139b565b9050919050565b606060006001610ff28461152f565b01905060008167ffffffffffffffff81111561101157611010611c08565b5b6040519080825280601f01601f1916602001820160405280156110435781602001600182028036833780820191505090505b509050600082602001820190505b6001156110a6578080600190039150507f3031323334353637383961626364656600000000000000000000000000000000600a86061a8153600a858161109a57611099612351565b5b04945060008503611051575b819350505050919050565b60006002600083815260200190815260200160002060009054906101000a900473ffffffffffffffffffffffffffffffffffffffff169050919050565b80806111275750600073ffffffffffffffffffffffffffffffffffffffff168273ffffffffffffffffffffffffffffffffffffffff1614155b1561125b5760006111378461097f565b9050600073ffffffffffffffffffffffffffffffffffffffff168373ffffffffffffffffffffffffffffffffffffffff16141580156111a257508273ffffffffffffffffffffffffffffffffffffffff168173ffffffffffffffffffffffffffffffffffffffff1614155b80156111b557506111b38184610881565b155b156111f757826040517fa9fbf51f0000000000000000000000000000000000000000000000000000000081526004016111ee9190611a61565b60405180910390fd5b811561125957838573ffffffffffffffffffffffffffffffffffffffff168273ffffffffffffffffffffffffffffffffffffffff167f8c5be1e5ebec7d5bd14f71427d1e84f3dd0314c0f7b2291e5b200ac8c7c3b92560405160405180910390a45b505b836004600085815260200190815260200160002060006101000a81548173ffffffffffffffffffffffffffffffffffffffff021916908373ffffffffffffffffffffffffffffffffffffffff16021790555050505050565b6112bd8383611682565b6112d26112c8610a44565b6000858585610e05565b505050565b6112e283838361177b565b61139657600073ffffffffffffffffffffffffffffffffffffffff168373ffffffffffffffffffffffffffffffffffffffff160361135757806040517f7e27328900000000000000000000000000000000000000000000000000000000815260040161134e9190611af7565b60405180910390fd5b81816040517f177e802f00000000000000000000000000000000000000000000000000000000815260040161138d929190612380565b60405180910390fd5b505050565b606060008451036113bd57604051806020016040528060008152509050611528565b6000826113ef5760036002865160046113d691906123a9565b6113e091906123eb565b6113ea919061241f565b611416565b6003600286516113ff91906123eb565b611409919061241f565b600461141591906123a9565b5b905060008167ffffffffffffffff81111561143457611433611c08565b5b6040519080825280601f01601f1916602001820160405280156114665781602001600182028036833780820191505090505b50905060018501602082018788518901602081018051600082525b828410156114dc576003840193508351603f8160121c168701518653600186019550603f81600c1c168701518653600186019550603f8160061c168701518653600186019550603f8116870151865360018601955050611481565b808252891561151c5760038c5106600181146114ff57600281146115125761151a565b603d6001870353603d600287035361151a565b603d60018703535b505b50505050505080925050505b9392505050565b600080600090507a184f03e93ff9f4daa797ed6e38ed64bf6a1f010000000000000000831061158d577a184f03e93ff9f4daa797ed6e38ed64bf6a1f010000000000000000838161158357611582612351565b5b0492506040810190505b6d04ee2d6d415b85acef810000000083106115ca576d04ee2d6d415b85acef810000000083816115c0576115bf612351565b5b0492506020810190505b662386f26fc1000083106115f957662386f26fc1000083816115ef576115ee612351565b5b0492506010810190505b6305f5e1008310611622576305f5e100838161161857611617612351565b5b0492506008810190505b612710831061164757612710838161163d5761163c612351565b5b0492506004810190505b6064831061166a57606483816116605761165f612351565b5b0492506002810190505b600a8310611679576001810190505b80915050919050565b600073ffffffffffffffffffffffffffffffffffffffff168273ffffffffffffffffffffffffffffffffffffffff16036116f45760006040517f64a0ae920000000000000000000000000000000000000000000000000000000081526004016116eb9190611a61565b60405180910390fd5b600061170283836000610a7c565b9050600073ffffffffffffffffffffffffffffffffffffffff168173ffffffffffffffffffffffffffffffffffffffff16146117765760006040517f73c6ac6e00000000000000000000000000000000000000000000000000000000815260040161176d9190611a61565b60405180910390fd5b505050565b60008073ffffffffffffffffffffffffffffffffffffffff168373ffffffffffffffffffffffffffffffffffffffff161415801561183357508273ffffffffffffffffffffffffffffffffffffffff168473ffffffffffffffffffffffffffffffffffffffff1614806117f457506117f38484610881565b5b8061183257508273ffffffffffffffffffffffffffffffffffffffff1661181a83610a07565b73ffffffffffffffffffffffffffffffffffffffff16145b5b90509392505050565b6000604051905090565b600080fd5b600080fd5b60007fffffffff0000000000000000000000000000000000000000000000000000000082169050919050565b61188581611850565b811461189057600080fd5b50565b6000813590506118a28161187c565b92915050565b6000602082840312156118be576118bd611846565b5b60006118cc84828501611893565b91505092915050565b60008115159050919050565b6118ea816118d5565b82525050565b600060208201905061190560008301846118e1565b92915050565b600081519050919050565b600082825260208201905092915050565b60005b8381101561194557808201518184015260208101905061192a565b60008484015250505050565b6000601f19601f8301169050919050565b600061196d8261190b565b6119778185611916565b9350611987818560208601611927565b61199081611951565b840191505092915050565b600060208201905081810360008301526119b58184611962565b905092915050565b6000819050919050565b6119d0816119bd565b81146119db57600080fd5b50565b6000813590506119ed816119c7565b92915050565b600060208284031215611a0957611a08611846565b5b6000611a17848285016119de565b91505092915050565b600073ffffffffffffffffffffffffffffffffffffffff82169050919050565b6000611a4b82611a20565b9050919050565b611a5b81611a40565b82525050565b6000602082019050611a766000830184611a52565b92915050565b611a8581611a40565b8114611a9057600080fd5b50565b600081359050611aa281611a7c565b92915050565b60008060408385031215611abf57611abe611846565b5b6000611acd85828601611a93565b9250506020611ade858286016119de565b9150509250929050565b611af1816119bd565b82525050565b6000602082019050611b0c6000830184611ae8565b92915050565b600080600060608486031215611b2b57611b2a611846565b5b6000611b3986828701611a93565b9350506020611b4a86828701611a93565b9250506040611b5b868287016119de565b9150509250925092565b600060208284031215611b7b57611b7a611846565b5b6000611b8984828501611a93565b91505092915050565b611b9b816118d5565b8114611ba657600080fd5b50565b600081359050611bb881611b92565b92915050565b60008060408385031215611bd557611bd4611846565b5b6000611be385828601611a93565b9250506020611bf485828601611ba9565b9150509250929050565b600080fd5b600080fd5b7f4e487b7100000000000000000000000000000000000000000000000000000000600052604160045260246000fd5b611c4082611951565b810181811067ffffffffffffffff82111715611c5f57611c5e611c08565b5b80604052505050565b6000611c7261183c565b9050611c7e8282611c37565b919050565b600067ffffffffffffffff821115611c9e57611c9d611c08565b5b611ca782611951565b9050602081019050919050565b82818337600083830152505050565b6000611cd6611cd184611c83565b611c68565b905082815260208101848484011115611cf257611cf1611c03565b5b611cfd848285611cb4565b509392505050565b600082601f830112611d1a57611d19611bfe565b5b8135611d2a848260208601611cc3565b91505092915050565b60008060008060808587031215611d4d57611d4c611846565b5b6000611d5b87828801611a93565b9450506020611d6c87828801611a93565b9350506040611d7d878288016119de565b925050606085013567ffffffffffffffff811115611d9e57611d9d61184b565b5b611daa87828801611d05565b91505092959194509250565b60008060408385031215611dcd57611dcc611846565b5b6000611ddb85828601611a93565b9250506020611dec85828601611a93565b9150509250929050565b7f4e487b7100000000000000000000000000000000000000000000000000000000600052602260045260246000fd5b60006002820490506001821680611e3d57607f821691505b602082108103611e5057611e4f611df6565b5b50919050565b7f4e487b7100000000000000000000000000000000000000000000000000000000600052601160045260246000fd5b6000611e90826119bd565b91507fffffffffffffffffffffffffffffffffffffffffffffffffffffffffffffffff8203611ec257611ec1611e56565b5b600182019050919050565b6000606082019050611ee26000830186611a52565b611eef6020830185611ae8565b611efc6040830184611a52565b949350505050565b7f4552433732314d657461646174613a2055524920717565727920666f72206e6f60008201527f6e6578697374656e7420746f6b656e0000000000000000000000000000000000602082015250565b6000611f60602f83611916565b9150611f6b82611f04565b604082019050919050565b60006020820190508181036000830152611f8f81611f53565b9050919050565b600081905092915050565b7f7b226e616d65223a22535647204e465420230000000000000000000000000000600082015250565b6000611fd7601283611f96565b9150611fe282611fa1565b601282019050919050565b6000611ff88261190b565b6120028185611f96565b9350612012818560208601611927565b80840191505092915050565b7f222c000000000000000000000000000000000000000000000000000000000000600082015250565b6000612054600283611f96565b915061205f8261201e565b600282019050919050565b7f226465736372697074696f6e223a22416e206f6e2d636861696e20535647204e60008201527f4654222c00000000000000000000000000000000000000000000000000000000602082015250565b60006120c6602483611f96565b91506120d18261206a565b602482019050919050565b7f22696d616765223a22646174613a696d6167652f7376672b786d6c3b6261736560008201527f36342c0000000000000000000000000000000000000000000000000000000000602082015250565b6000612138602383611f96565b9150612143826120dc565b602382019050919050565b7f2261747472696275746573223a5b5d7d00000000000000000000000000000000600082015250565b6000612184601083611f96565b915061218f8261214e565b601082019050919050565b60006121a582611fca565b91506121b18285611fed565b91506121bc82612047565b91506121c7826120b9565b91506121d28261212b565b91506121de8284611fed565b91506121e982612047565b91506121f482612177565b91508190509392505050565b7f646174613a6170706c69636174696f6e2f6a736f6e3b6261736536342c000000600082015250565b6000612236601d83611f96565b915061224182612200565b601d82019050919050565b600061225782612229565b91506122638284611fed565b915081905092915050565b600081519050919050565b600082825260208201905092915050565b60006122958261226e565b61229f8185612279565b93506122af818560208601611927565b6122b881611951565b840191505092915050565b60006080820190506122d86000830187611a52565b6122e56020830186611a52565b6122f26040830185611ae8565b8181036060830152612304818461228a565b905095945050505050565b60008151905061231e8161187c565b92915050565b60006020828403121561233a57612339611846565b5b60006123488482850161230f565b91505092915050565b7f4e487b7100000000000000000000000000000000000000000000000000000000600052601260045260246000fd5b60006040820190506123956000830185611a52565b6123a26020830184611ae8565b9392505050565b60006123b4826119bd565b91506123bf836119bd565b92508282026123cd816119bd565b915082820484148315176123e4576123e3611e56565b5b5092915050565b60006123f6826119bd565b9150612401836119bd565b925082820190508082111561241957612418611e56565b5b92915050565b600061242a826119bd565b9150612435836119bd565b92508261244557612444612351565b5b82820490509291505056fe3c73766720786d6c6e733d22687474703a2f2f7777772e77332e6f72672f323030302f737667222077696474683d2233303022206865696768743d22323030223e3c726563742077696474683d223130302522206865696768743d2231303025222066696c6c3d22626c61636b222f3e3c7465787420783d223530252220793d223530252220646f6d696e616e742d626173656c696e653d226d6964646c652220746578742d616e63686f723d226d6964646c65222066696c6c3d2277686974652220666f6e742d73697a653d223230223e4f6e2d436861696e204e46543c2f746578743e3c2f7376673e4142434445464748494a4b4c4d4e4f505152535455565758595a6162636465666768696a6b6c6d6e6f707172737475767778797a303132333435363738392b2fa264697066735822122072c6bbda57f99370ea3c24309a546343dab2dd4175367b4fb08350924cffa4f064736f6c63430008140033",
  "linkReferences": {},
  "deployedLinkReferences": {}
}